{
  "_format": "hh-sol-artifact-1",
  "contractName": "MockBasenameResolver",
  "sourceName": "contracts/MockBasenameResolver.sol",
  "abi": [
    {
      "inputs": [
        {
          "internalType": "address",
          "name": "",
          "type": "address"
        }
      ],
      "name": "basenames",
      "outputs": [
        {
          "internalType": "string",
          "name": "",
          "type": "string"
        }
      ],
      "stateMutability": "view",
      "type": "function"
    },
    {
      "inputs": [
        {
          "internalType": "bytes32",
          "name": "node",
          "type": "bytes32"
        }
      ],
      "name": "namehash",
      "outputs": [
        {
          "internalType": "bytes32",
          "name": "",
          "type": "bytes32"
        }
      ],
      "stateMutability": "pure",
      "type": "function"
    },
    {
      "inputs": [
        {
          "internalType": "address",
          "name": "wallet",
          "type": "address"
        }
      ],
      "name": "resolve",
      "outputs": [
        {
          "internalType": "string",
          "name": "",
          "type": "string"
        }
      ],
      "stateMutability": "view",
      "type": "function"
    },
    {
      "inputs": [
        {
          "internalType": "bytes32",
          "name": "node",
          "type": "bytes32"
        }
      ],
      "name": "resolve",
      "outputs": [
        {
          "internalType": "address",
          "name": "",
          "type": "address"
        }
      ],
      "stateMutability": "view",
      "type": "function"
    },
    {
      "inputs": [
        {
          "internalType": "address",
          "name": "wallet",
          "type": "address"
        },
        {
          "internalType": "string",
          "name": "basename",
          "type": "string"
        }
      ],
      "name": "setBasename",
      "outputs": [],
      "stateMutability": "nonpayable",
      "type": "function"
    },
    {
      "inputs": [
        {
          "internalType": "bytes32",
          "name": "node",
          "type": "bytes32"
        },
        {
          "internalType": "address",
          "name": "addr",
          "type": "address"
        }
      ],
      "name": "setResolvedAddress",
      "outputs": [],
      "stateMutability": "nonpayable",
      "type": "function"
    }
  ],
  "bytecode": "0x60808060405234610016576104bc908161001c8239f35b600080fdfe60406080815260048036101561001457600080fd5b600091823560e01c806355ea6c47146102bc57806358e205b9146102bc5780635c23bdf51461028b578063d7699026146100d0578063dd9d687e146100b35763fb73a41b1461006257600080fd5b346100af57806003193601126100af576024356001600160a01b03811692908390036100ab57358352826020528220906bffffffffffffffffffffffff60a01b82541617905580f35b8380fd5b8280fd5b50346100af5760203660031901126100af57602092505190358152f35b50346100af57806003193601126100af576100e961030a565b9067ffffffffffffffff9060243582811161028757366023820112156102875780850135938385116102745782519087602093601f1997610131868a601f84011601866103a8565b80855236602482840101116100af5780602487930183870137840101526001600160a01b03168752600180835292872081519096909485116102615750610178865461036e565b601f811161021b575b5081601f85116001146101bc57508394509083929187946101b1575b50501b916000199060031b1c191617905580f35b01519250388061019d565b9294849081168789528489209489905b8883831061020157505050106101e8575b505050811b01905580f35b015160001960f88460031b161c191690553880806101dd565b8587015188559096019594850194879350908101906101cc565b868852828820601f860160051c810191848710610257575b601f0160051c019084905b82811061024c575050610181565b89815501849061023e565b9091508190610233565b634e487b7160e01b885260419052602487fd5b634e487b7160e01b875260418652602487fd5b8580fd5b5090346100af5760203660031901126100af573582526020828152918190205490516001600160a01b039091168152f35b83823461030657602036600319011261030657610302916102f79082906001600160a01b036102e961030a565b1681526001602052206103e0565b905191829182610325565b0390f35b5080fd5b600435906001600160a01b038216820361032057565b600080fd5b6020808252825181830181905290939260005b82811061035a57505060409293506000838284010152601f8019910116010190565b818101860151848201604001528501610338565b90600182811c9216801561039e575b602083101461038857565b634e487b7160e01b600052602260045260246000fd5b91607f169161037d565b90601f8019910116810190811067ffffffffffffffff8211176103ca57604052565b634e487b7160e01b600052604160045260246000fd5b90604051918260008254926103f48461036e565b9081845260019485811690816000146104635750600114610420575b505061041e925003836103a8565b565b9093915060005260209081600020936000915b81831061044b57505061041e93508201013880610410565b85548884018501529485019487945091830191610433565b91505061041e94506020925060ff191682840152151560051b820101388061041056fea2646970667358221220a11bd7498031f29ddeca90d5993fdfd3f8ef105f18d94ad2bfb9f3143edb8cb264736f6c63430008140033",
  "linkReferences": {},
  "deployedLinkReferences": {}
}