{
  "_format": "hh-sol-artifact-1",
  "contractName": "MockEntryPoint",
  "sourceName": "contracts/MockEntryPoint.sol",
  "abi": [
    {
      "inputs": [
        {
          "internalType": "address",
          "name": "account",
          "type": "address"
        }
      ],
      "name": "depositTo",
      "outputs": [],
      "stateMutability": "payable",
      "type": "function"
    },
    {
      "inputs": [
        {
          "internalType": "address",
          "name": "",
          "type": "address"
        }
      ],
      "name": "deposits",
      "outputs": [
        {
          "internalType": "uint256",
          "name": "",
          "type": "uint256"
        }
      ],
      "stateMutability": "view",
      "type": "function"
    },
    {
      "inputs": [
        {
          "internalType": "address",
          "name": "paymaster",
          "type": "address"
        },
        {
          "internalType": "uint8",
          "name": "mode",
          "type": "uint8"
        },
        {
          "internalType": "bytes",
          "name": "context",
          "type": "bytes"
        },
        {
          "internalType": "uint256",
          "name": "actualGasCost",
          "type": "uint256"
        }
      ],
      "name": "postOp",
      "outputs": [],
      "stateMutability": "nonpayable",
      "type": "function"
    },
    {
      "inputs": [
        {
          "internalType": "address",
          "name": "paymaster",
          "type": "address"
        },
        {
          "components": [
            {
              "internalType": "address",
              "name": "sender",
              "type": "address"
            },
            {
              "internalType": "uint256",
              "name": "nonce",
              "type": "uint256"
            },
            {
              "internalType": "bytes",
              "name": "initCode",
              "type": "bytes"
            },
            {
              "internalType": "bytes",
              "name": "callData",
              "type": "bytes"
            },
            {
              "internalType": "uint256",
              "name": "callGasLimit",
              "type": "uint256"
            },
            {
              "internalType": "uint256",
              "name": "verificationGasLimit",
              "type": "uint256"
            },
            {
              "internalType": "uint256",
              "name": "preVerificationGas",
              "type": "uint256"
            },
            {
              "internalType": "uint256",
              "name": "maxFeePerGas",
              "type": "uint256"
            },
            {
              "internalType": "uint256",
              "name": "maxPriorityFeePerGas",
              "type": "uint256"
            },
            {
              "internalType": "bytes",
              "name": "paymasterAndData",
              "type": "bytes"
            },
            {
              "internalType": "bytes",
              "name": "signature",
              "type": "bytes"
            }
          ],
          "internalType": "struct UserOperation",
          "name": "userOp",
          "type": "tuple"
        },
        {
          "internalType": "bytes32",
          "name": "userOpHash",
          "type": "bytes32"
        },
        {
          "internalType": "uint256",
          "name": "maxCost",
          "type": "uint256"
        }
      ],
      "name": "validatePaymasterUserOp",
      "outputs": [
        {
          "internalType": "bytes",
          "name": "context",
          "type": "bytes"
        },
        {
          "internalType": "uint256",
          "name": "validationData",
          "type": "uint256"
        }
      ],
      "stateMutability": "nonpayable",
      "type": "function"
    }
  ],
  "bytecode": "0x6080806040523461001657610517908161001c8239f35b600080fdfe608060408181526004918236101561001657600080fd5b600092833560e01c918263578a7b7a14610336575081636e8671be146100db578163b760faf91461008a575063fc7e286d1461005157600080fd5b346100865760203660031901126100865760209181906001600160a01b0361007761041d565b16815280845220549051908152f35b5080fd5b91905060203660031901126100d7576001600160a01b036100a961041d565b1683528260205282208054913483018093116100c457505580f35b634e487b7160e01b845260119052602483fd5b8280fd5b905082346103095760031990608036830112610309576100f961041d565b67ffffffffffffffff926024359184831161033257828601906101608093853603011261032e578751637a32e3bf60e11b81526060888201529382356001600160a01b03818116949185900361032957866102208196948a989461021061018b8b978699606488015260248501356084880152610179604486018561048e565b909160a48901526101c48801916104c0565b916101b061019c606486018361048e565b606319898703810160c48b015295916104c0565b608485013560e48801526102086101049160a4870135838a01526101f761012460c4890135818c01526101449460e48a0135868d01528901356101648c015288018561048e565b90878b8403016101848c01526104c0565b94019061048e565b91858403016101a48601526104c0565b604435602483015260643560448301520393165af192831561031f578294839461027b575b865187815286518189018190526060908290886102688284860160208e01610433565b6020830152601f01601f19168101030190f35b9193509193503d8085853e6102908185610456565b83019385848603126103095783518381116100865784019185601f8401121561008657825193841161030c57508551946102d4601f8501601f191660200187610456565b83865260208484010111610309575061026894926102fd85936020938480606099019101610433565b01519193819386610245565b80fd5b634e487b7160e01b825260419052602490fd5b85513d84823e3d90fd5b600080fd5b8480fd5b8380fd5b929150346103325760803660031901126103325761035261041d565b846024359160ff83168093036100865760443567ffffffffffffffff93848211610332573660238301121561033257818601359285841161032e57366024858501011161032e576001600160a01b031691823b1561032e57886103d686928296839563a9a2340960e01b85528b8501526060602485015260246064850192016104c0565b606435604483015203925af18015610413576103f0578480f35b8311610400575052388080808480f35b634e487b7160e01b845260419052602483fd5b83513d87823e3d90fd5b600435906001600160a01b038216820361032957565b60005b8381106104465750506000910152565b8181015183820152602001610436565b90601f8019910116810190811067ffffffffffffffff82111761047857604052565b634e487b7160e01b600052604160045260246000fd5b9035601e198236030181121561032957016020813591019167ffffffffffffffff821161032957813603831361032957565b908060209392818452848401376000828201840152601f01601f191601019056fea264697066735822122029c30da60c82521ef1736475751f417f7c95c98787c50006f0c0b082468aca7d64736f6c63430008140033",
  "linkReferences": {},
  "deployedLinkReferences": {}
}